:020000040800F2
:1000000008280020550C0108750E0108770E01081C
:100010007B0E01087F0E0108830E0108000000001E
:10002000000000000000000000000000870E010832
:10003000890E0108000000008B0E01088D0E0108DA
:100040006F0C01086F0C01086F0C010843E00008F9
:100050006F0C01086F0C01086F0C01086F0C010890
:100060006F0C01086F0C01086F0C01086F0C010880
:100070006F0C01086F0C01086F0C01086F0C010870
:100080006F0C01086F0C01086F0C01086F0C010860
:100090006F0C01086F0C01086F0C01086F0C010850
:1000A0006F0C01086F0C01086F0C01086F0C010840
:1000B0006F0C0108F5C900086F0C01086F0C0108EE
:1000C0006F0C01086F0C01086F0C01086F0C010820
:1000D0006F0C010869CF00086F0C01086F0C010854
:1000E0006F0C01086F0C01086F0C010800F002F89A
:1000F00000F05EF80AA090E8000C82448344AAF164
:100100000107DA4501D100F053F8AFF2090EBAE861
:100110000F0013F0010F18BFFB1A43F0010318473B
:100120000C4A01002C4A010010F8013B0A4413F06C
:10013000030408BF10F8014B1D1108BF10F8015B44
:10014000641E05D010F8016B641E01F8016BF9D133
:10015000002D15D010F8014B03F00C030C2BA1EB74
:1001600004040ABF10F8013BA4EB8314A4EB03249E
:1001700005F1010314F8016B5B1E01F8016BF9D561
:10018000914238BF10F8013BD1D3704700230024BF
:1001900000250026103A28BF78C1FBD8520728BF97
:1001A00030C148BF0B6070471FB51FBD10B510BDF3
:1001B00010F0E4FE1146FFF7F7FF0CF0C2FA10F062
:1001C00002FF03B4FFF7F2FF03BC10F007FF0000CB
:1001D000002000BF04E02021FC4A1154411CC8B299
:1001E0007928F8DB704730B5C0EB001301EB43030F
:1001F000F74C23800AE012F8013BF44CF44D2D88B3
:100200006355F34B1B885B1CF14C23801378002B48
:10021000F1D130BDEF4800780C2816D10520EE4909
:100220000870EE4908700020ED498870C870ED49EB
:10023000C8700120EC4908700020EC4908700120CA
:10024000EB490870EB49087065E0E24800780B283C
:100250002BD10020E0490870E0490870E04988701F
:10026000C870E049C8700120DF490870E049087093
:10027000E0490870E048007810B10120DF490870BB
:100280000020DD490870DE490870DE48007820F063
:100290000200DC490870DC48007820F04000DA49B0
:1002A00008700020D949087035E0CA48007890B33A
:1002B000D7480078C0F3C00068BBD5480078C0F3C9
:1002C000001040BBD2480078C0F3401018BBD048A3
:1002D0000078C0F38010F0B9CD48007820F04000DD
:1002E0004030CB4908700846007820F020002030CC
:1002F00008700846007820F010001030087008469A
:10030000007820F00800083008700120B849087013
:100310000320B84908700020AE4908707047AD4806
:1003200000780C2805D10020AB490870AB49087053
:1003300008E0A84800780E2804D0A64800780328D2
:1003400000D000BF7047A34800780C2805D10020DA
:10035000A1490870A149087008E09E4800780E285D
:1003600004D09C480078032800D000BF704799480B
:1003700000780C2811D1002097490870974908701F
:1003800097498870C8709749C870012096490870CD
:10039000974908709749087008E08E4800780E2841
:1003A00004D08C480078032800D000BF704770B597
:1003B000984D994E87480078102803D085480078DA
:1003C0000B2846D183480078102829D193A2032115
:1003D00001200EF07BF999A2032102200EF076F99C
:1003E0008C4D8D4E002403E0305D2855601CC4B256
:1003F000C82CF9DB00240DE0295D984A1278521EC2
:100400004FF4807303EB0222224490B20DF092FB72
:10041000601CC4B2C82CEFDB41F270700DF06AFCB6
:1004200000206D4908706D4908706D498870C8706A
:1004300001206D4908706E4908706E4908700020EF
:10044000874908708749087087490870874908708C
:1004500035E06048007890B36D480078C0F3C00084
:1004600068BB6B480078C0F3001040BB6848007858
:10047000C0F3401018BB66480078C0F38010F0B994
:100480006348007820F04000403061490870084619
:10049000007820F02000203008700846007820F016
:1004A0001000103008700846007820F0080008306E
:1004B000087001204E49087003204E490870002042
:1004C0004449087070BD5448424909780C291ED12E
:1004D0000021414A1170414A1170414A9170D17016
:1004E0000121404AD170424A1170424A11700021E4
:1004F0005B4A11705B4A11705B4A11705B4A117064
:100500005B49097821F00801594A117003E2314929
:1005100009780E2958D15549097831B1012915D0EA
:10052000022932D0032950D1A4E04F490978491C4F
:10053000C9B24D4A1170117011460978182901DDB0
:10054000002111700021474A117005E146490978E0
:10055000042202EBC101415C491CCAB2424909783C
:10056000042303EBC10142543F49097800EBC10168
:100570000979632908DD63223B49097803EBC1014E
:10058000425403211B4A1170E6E0374909780522DD
:1005900002EBC101415C491CCAB233490978052309
:1005A00003EBC10142543049097800EBC10149799C
:1005B0003B2908DD3B222C49097803EBC101425459
:1005C00003210C4A1170C7E0C7E08CE02B2100200A
:1005D000C8130020D0140020C1130020C213002033
:1005E000C3130020181A0020B81300204B0000206D
:1005F0004A000020490000201A150020D7130020CF
:10060000301400205F0000205E0000203214002023
:100610005A0000207C1800204419002020202020AF
:1006200020CAFDBEDDD5FDD4DAB1A3B4E62C20206E
:1006300020202020202020202020000020202020FA
:1006400020202020202020C7EBC9D4BAF22E2E2E45
:10065000202020202020202020200000D613002051
:10066000BA130020BB1300204D00002053000020CF
:1006700057000020F9490978062202EBC101425CCB
:10068000F74991F85B108A4209DAF54991F8592047
:10069000F2490978062303EBC101425422E0EF49F5
:1006A0000978062202EBC101415C491CCAB2EB4940
:1006B0000978062303EBC1014254E849097800EBAD
:1006C000C1018A79E64991F85A108A420ADDE44963
:1006D00091F85A20E149097803EBC1014254032102
:1006E000E04A117038E0DD490978022202EBC101CD
:1006F000425CDB4991F82A108A4209DAD84991F81C
:100700002A20D6490978022303EBC101425422E092
:10071000D2490978022202EBC101415C491CCAB2EC
:10072000CE490978022303EBC1014254CB49097831
:1007300000EBC1018978CA4A92F8282091420ADD6B
:10074000C74991F82820C549097803EBC1014254F3
:100750000321C44A117000BFD8E6C34909780329B0
:100760007ED1C249097831B1012917D002293BD085
:10077000032976D15EE0B9490978002907DDB74938
:100780000978491EC9B2B54A1170117002E01821EA
:10079000B24A11700021B64A1170A4E0AF4909783D
:1007A00000EBC1010979002913DDAC490978042265
:1007B00002EBC101415C491ECAB2A8490978042371
:1007C00003EBC1014254A549097803EBC10142542E
:1007D00009E00022A1490978042303EBC101425436
:1007E0000321A04A11707EE09C49097800EBC10109
:1007F0004979002913DD99490978052202EBC101E5
:10080000415C491ECAB295490978052303EBC10131
:1008100042549249097803EBC101425409E0002295
:100820008E490978052303EBC101425403218D4A07
:10083000117058E08949097800EBC1018A7988492B
:1008400091F85B108A4216DD84490978062202EB92
:10085000C101415C491ECAB280490978062301E002
:1008600042E015E003EBC10142547C49097803EBF7
:10087000C10142540BE07A4991F85920774909782F
:10088000062303EBC10142540321764A11702AE08A
:100890007249097800EBC1018A78714991F82A10F0
:1008A0008A4213DD6D490978022202EBC101415CE5
:1008B000491ECAB269490978022303EBC1014254B7
:1008C0006649097803EBC10142540BE0644991F891
:1008D0002A2062490978022303EBC1014254032113
:1008E000604A117000BF3CE35F490978072913D1C2
:1008F0000621604A1170604A117001215F4A9170AF
:100900000021D1705E4AD17001215E4A11705E4AA9
:100910001170544A117024E3534909780F2917D1F3
:1009200001215A4A1170554A517050490978491CA1
:10093000C9B24E4A1170117011460978052901DBC0
:10094000002111700121504A1170464A117008E3CC
:10095000454909780A2959D14D490978C909A9BBDE
:100960004B490978C1F3400191B94A490978C1F36B
:10097000C00169B94649097821F00201891C444A3D
:10098000117058223549097800EBC101CA7030E076
:100990003F490978C1F34001C9B13E490978C1F323
:1009A000C001A1B93A49097821F00201384A117011
:1009B0003849097821F008010831364A11704A2275
:1009C0002649097800EBC101CA7012E017E03049EE
:1009D000097821F002012E4A11702E49097821F080
:1009E00008012C4A117000221C49097800EBC10152
:1009F000CA700121244A11701A4A1170B1E2012112
:100A0000214A11700321174A1170AAE21649097888
:100A100004295CD11E490978C909E9BB1C49097838
:100A2000C1F38011C1BB1A4909788908C943184A22
:100A3000127861F3820216490A700978C1F38001C5
:100A400059B30649097800EBC101497841F0010228
:100A50000249097800EBC1014A702BE04D000020EB
:100A6000231A002049000020D01400205300002049
:100A7000BB130020C1130020C2130020C3130020A9
:100A8000181A0020B81300204A000020130000208C
:100A9000590000205700002012E0FFE7FE490978C6
:100AA00000EBC101497801F00E02FB49097800EB27
:100AB000C1014A700121F94A1170F94A117050E2DE
:100AC0000121F64A11700321F54A117049E2F549F6
:100AD000097808293DD1F4490978C90989BBF24947
:100AE0000978C1F3801161BBEF490978C908C9438E
:100AF000ED4A127861F3C302EB490A700978C1F339
:100B0000C00161B1E449097800EBC101497841F0C5
:100B10000202E149097800EBC1014A700BE0DE49AD
:100B2000097800EBC101497801F00D02DA49097832
:100B300000EBC1014A700121D84A1170D84A1170E6
:100B40000FE2FFE70121D54A11700321D44A117049
:100B500007E2D44909780D293DD1D3490978C9095B
:100B600089BBD1490978C1F3801161BBCE490978AD
:100B70000909C943CC4A127861F30412CA490A70C0
:100B80000978C1F3001161B1C349097800EBC101D3
:100B9000497841F00402C049097800EBC1014A706C
:100BA0000BE0BD49097800EBC101497801F00B0267
:100BB000B949097800EBC1014A700121B74A1170A7
:100BC000B74A1170CDE1FFE70121B44A117003214A
:100BD000B34A1170C5E1B3490978012952D1B2492C
:100BE0000978C90981BBB0490978C1F3801159BBA3
:100BF000AE49097851B90121AC4A1170AA49097866
:100C000021F020012031A84A117027E0A749097876
:100C100001290AD10221A54A1170A349097821F0BE
:100C200020012031A04A117018E0A049097802295A
:100C30000BD103219D4A11709B49097821F02001B5
:100C40002031994A117009E015E00021974A11708E
:100C50009549097821F02001934A117093490A7847
:100C60008D49097800EBC101CA7101218B4A1170CD
:100C70008B4A117075E10121884A11700321884A5D
:100C800011706EE187490978052969D1864909788B
:100C9000C909E9BB844909788909C943824A12789C
:100CA00061F3861280490A700978C1F3801161B13D
:100CB0007949097800EBC101497841F00802764989
:100CC000097800EBC1014A700BE07349097800EB29
:100CD000C101497801F007026F49097800EBC101B1
:100CE0004A7071490978C1F3801161B36E4909787E
:100CF00021F004016C4A11701146097821F00801B5
:100D000011701146097821F010011170002100E0E6
:100D10001FE0664A11706449097821F02001624A97
:100D2000117000225C49097800EBC101CA715A496F
:100D3000097800EBC101497801F0080256490978A9
:100D400000EBC1014A700121544A1170544A1170DC
:100D500007E10121514A11700321514A117000E14C
:100D60005049097809297DD151490978E9BB012108
:100D70004F4A11704C49097821F0800180314A4A6C
:100D800011701146097821F0020111704949097862
:100D900021F00801474A11704349097821F0040104
:100DA000414A11701146097821F00801117011466D
:100DB000097821F01001117000213C4A11703A4964
:100DC000097821F02001384A11700022324909784F
:100DD00000EBC101CA713449097821F04001324A5F
:100DE00011705A222C49097800E009E000EBC1019A
:100DF000CA7000222849097800EBC1014A70A1E0BD
:100E00002B490978012959D10221294A1170264913
:100E1000097821F080018031234A11701146097848
:100E200021F0020111702349097821F00801214ABB
:100E300011701D49097821F004011B4A11701146F7
:100E4000097821F0080111701146097821F010018C
:100E500011700021154A11701349097821F0200101
:100E6000114A00E074E0117000220B49097800EB90
:100E7000C101CA710C49097821F040010A4A117078
:100E800047220549097800EBC101CA7000220249D6
:100E9000097800EBC1010FE04D0000204A0000205E
:100EA00049000020D0140020590000201B00002021
:100EB0001C000020570000204A7043E00021F94A3E
:100EC0001170F949097821F08001F74A1170114633
:100ED000097821F002011170F449097821F0080124
:100EE000F24A1170F049097821F00401EE4A1170BC
:100EF0001146097821F0080111701146097821F096
:100F0000100111700021EA4A1170E749097821F0B7
:100F10002001E54A11700022E649097800EBC10181
:100F2000CA71E149097821F04001DF4A11700022BD
:100F3000E049097800EBC101CA70DE49097800EB8D
:100F4000C1014A700121DC4A1170DC4A117008E0CD
:100F5000DB49097829B10121D74A11700321D74A09
:100F600011707047D7490878D54909780C2926D1DE
:100F7000D5490978C1F3401129B90021D34A11702C
:100F8000D34A117009E0D0490978C1F3401121B169
:100F90000A21CE4A1170CE4A11700021CD4A9170BB
:100FA000D1700121CC4AD1700021CC4A1170CC4AB9
:100FB00011700121C04A1170C04A117081E0C0490E
:100FC00009780E2923D120B1C249C978491EC14AE6
:100FD000D170C049CA78411E8A4202DCBD49C97835
:100FE00011B90021BB4AD170BE490978C1F3C001D3
:100FF000002966D1BB49097821F008010831B94AB6
:1010000011700121AC4A1170AC4A117059E0AC4921
:10101000097803291FD158B1AE49C978491CAD4A96
:10102000D1701146CA78411E8A4201DDA94AD170A9
:10103000AC490978C1F3C001002942D1A949097816
:1010400021F008010831A74A117001219A4A117054
:101050009A4A117035E09A49097891B3A149097803
:10106000C1F3C00169BB9F490978C1F3001141BBBD
:101070009C490978C1F3401119BB9A490978C1F319
:101080008011F1B99749097821F040014031954A22
:1010900011701146097821F020012031117011469C
:1010A000097821F01001103111701146097821F0F2
:1010B00008010831117001217F4A117003217F4A14
:1010C000117000217E4A117070477D4800780C280D
:1010D00010D103207D4908707D49087001207D49A9
:1010E000887008460079C8700120734908707349F8
:1010F000087056E0724800780E2806D101206E492B
:10110000087003206D4908704BE06D480078032893
:1011100006D101206849087003206849087040E042
:1011200067480078072806D101206349087003202A
:101130006249087035E06248007890B369480078E9
:10114000C0F3C00068BB67480078C0F3001040BB24
:1011500064480078C0F3401018BB62480078C0F3C0
:101160008010F0B95F48007820F0400040305D49C1
:1011700008700846007820F02000203008700846EB
:10118000007820F01000103008700846007820F039
:1011900008000830087001204749087003204749BB
:1011A00008700020464908707047454800780C28B0
:1011B00010D1032045490870454908700120454970
:1011C000887008460079C87001203B4908703B4987
:1011D000087056E03A4800780E2806D101203649BA
:1011E00008700320354908704BE035480078032823
:1011F00006D101203049087003203049087040E0D2
:101200002F480078072806D101202B4908700320B9
:101210002A49087035E02A48007890B331480078B0
:10122000C0F3C00068BB2F480078C0F3001040BB7B
:101230002C480078C0F3401018BB2A480078C0F34F
:101240008010F0B92748007820F040004030254950
:1012500008700846007820F020002030087008460A
:10126000007820F01000103008700846007820F058
:1012700008000830087001200F49087003200F494A
:10128000087000200E490870704770B50C4800784F
:101290000C283AD10F48407818B100200D49487009
:1012A0002DE021E01C000020590000205700002004
:1012B0001B0000204D0000204A00002049000020B3
:1012C000D0140020CA1300205B000020C1130020AE
:1012D000C2130020C3130020181A0020BC130020E2
:1012E000BF1300205A0000200320FC490870FC496D
:1012F00008700120FB49887008460079C8700120F9
:10130000F9490870F9490870E4E1F94800780E28B5
:1013100072D1F448407800286FD0F248C07818B1F4
:10132000F048C078012816D1EE48C178F148405CF9
:101330000F280ADAEB48C178EE48405C401CC0B286
:10134000E849CA78EB49885400E00F20E549CA789B
:10135000E84988547EE0E348C078022816D1E14885
:10136000C178E448405C14280ADADE48C178E148D4
:10137000405C401CC0B2DB49CA78DE49885400E0BA
:101380001420D849CA78DB49885463E0D548C0782E
:10139000032816D1D348C178D648405C5A280ADAC7
:1013A000D048C178D348405C401CC0B2CD49CA780F
:1013B000D049885400E05A20CA49CA78CD49885497
:1013C00048E0C848C078042818D1C648C178C94840
:1013D000405C96280ADAC348C178C648405C401C85
:1013E000C0B2C049CA78C349885400E09620BD49BC
:1013F000CA78C04988542DE03FE01AE0B948C07867
:10140000072827D1B748C178BA48405C08280ADACB
:10141000B448C178B748405C401CC0B2B149CA78F2
:10142000B449885400E00820AE49CA78B1498854CC
:1014300010E0AC48C078401EAA49C8700846C07881
:10144000AD490978884202DCA648C07810B900206E
:10145000A449C870A9480078C0F3C00000280BD187
:10146000A648007820F008000830A4490870012040
:101470009D4908709D4908702CE19D48007803281B
:1014800072D19848407800286FD09648C07818B13B
:101490009448C078012816D19248C1789548405C9C
:1014A0000A280ADD8F48C1789248405C401EC0B2CD
:1014B0008C49CA788F49885400E00A208949CA7843
:1014C0008C4988547CE08748C078022816D185482A
:1014D000C1788848405C0F280ADD8248C178854879
:1014E000405C401EC0B27F49CA788249885400E0FF
:1014F0000F207C49CA787F49885461E07948C078D8
:10150000032816D17748C1787A48405C1E280ADD46
:101510007448C1787748405C401EC0B27149CA78AF
:101520007449885400E01E206E49CA787149885475
:1015300046E06C48C078042818D16A48C1786D48E4
:10154000405C5A280ADD6748C1786A48405C401E02
:10155000C0B26449CA786749885400E05A2061499A
:10156000CA78644988542BE03DE01AE05D48C078B1
:10157000072825D15B48C1785E48405C04280ADD15
:101580005848C1785B48405C401EC0B25549CA7893
:101590005849885400E004205249CA785549885473
:1015A0000EE05048C078401C4E49C8700846C078CC
:1015B00051490978884203DD4F4800784949C8708D
:1015C0004E480078C0F3C00000280BD14B4800788B
:1015D00020F008000830494908700120424908708D
:1015E0004249087076E04248007807283CD13D48DF
:1015F0000078B0B13B48407898B93A48C07807289D
:101600000FDC3848C078052803D13648C078062852
:1016100007D00120334948703349087033490870B6
:1016200058E030480078C0B12E484078A8B1314D1C
:1016300000202C494870002407E015F8011B04F134
:1016400068000CF077FA601CC4B2082CF5DB0120AE
:1016500025490870254908703CE00120224908709E
:1016600003202249087035E02148007890B32348D0
:101670000078C0F3C00068BB20480078C0F30010B9
:1016800040BB1E480078C0F3401018BB1B480078D0
:10169000C0F38010F0B91948007820F040004030C5
:1016A000164908700846007820F0200020300870A5
:1016B0000846007820F010001030087008460078C6
:1016C00020F0080008300870012007490870032046
:1016D0000649087000200649087070BDC11300203B
:1016E000C2130020C31300204A000020490000203C
:1016F000D01400208B1A0020BC1300205A000020B8
:10170000FE4800780C2810D10320FD490870FD49DF
:1017100008700120FC49887008460079C8700120D3
:10172000FA490870FA4908708EE0F44800780E28EB
:1017300023D1F548C078401EF349C8700846C078E8
:10174000F4490978884202DCEF48C07810B90020DB
:10175000ED49C870F0480078C0F3C000002873D18C
:10176000ED48007820F008000830EB4908700120AF
:10177000E6490870E649087066E0E048007803280A
:1017800021D1E148C078401CDF49C8700846C078C4
:10179000E0490978884203DDDE480078DA49C870FC
:1017A000DD480078C0F3C00000284DD1DA48007849
:1017B00020F008000830D84908700120D34908708B
:1017C000D349087040E0CD480078072806D10120B1
:1017D000CE4908700320CE49087035E0C74800782C
:1017E00090B3CD480078C0F3C00068BBCA48007809
:1017F000C0F3001040BBC8480078C0F3401018BBCD
:10180000C5480078C0F38010F0B9C348007820F0D4
:1018100040004030C04908700846007820F02000A1
:10182000203008700846007820F010001030087052
:101830000846007820F00800083008700120B349FD
:1018400008700320B24908700020AC490870704746
:1018500070B5AA4800780C2817D1AB48407818B169
:101860000020A94948700AE00320A5490870A5494D
:1018700008700120A449887008460079C8700120CA
:10188000A2490870A2490870F0E09C4800780E2830
:101890003DD19D484078B0B19B48C1789F48405C9D
:1018A00063280ADA9848C1789C48405C401CC0B262
:1018B0009549CA789949885400E063209249CA78CA
:1018C0009649885410E09048C078401E8E49C870F0
:1018D0000846C0788F490978884202DC8A48C07877
:1018E00010B900208849C8708B480078C0F3C00048
:1018F0000028C9D18848007820F0080008308649BF
:10190000087001208149087081490870AEE07B4869
:10191000007803283BD17C484078B0B17A48C17840
:101920007E48405C00280ADD7748C1787B48405CEF
:10193000401EC0B27449CA787849885400E000203B
:101940007149CA78754988540EE06F48C078401CC8
:101950006D49C8700846C0786E490978884203DD31
:101960006C4800786849C8706B480078C0F3C000C4
:1019700000287BD16848007820F0080008306649CC
:101980000870012061490870614908706EE05B4889
:101990000078072834D15C48007870B15A48407804
:1019A00058B95948C078032807DC012056494870C7
:1019B000564908705649087058E053480078C0B13D
:1019C00051484078A8B1554D00204F494870002437
:1019D00007E015F8011B04F158000CF0ABF8601C8F
:1019E000C4B2042CF5DB012048490870484908704E
:1019F0003CE001204549087003204549087035E066
:101A00003E48007890B344480078C0F3C00068BBFB
:101A100041480078C0F3001040BB3F480078C0F355
:101A2000401018BB3C480078C0F38010F0B93A4829
:101A3000007820F0400040303749087008460078B0
:101A400020F02000203008700846007820F01000B8
:101A5000103008700846007820F008000830087040
:101A600001202A49087003202949087000202349D1
:101A7000087070BD70B5214800780C2817D1224835
:101A8000407818B10020204948700AE003201C4922
:101A900008701C49087001201B49887008460079AD
:101AA000C8700120194908701949087031E11348BC
:101AB00000780E287ED114484078002855D012486E
:101AC000C07838B11048C078022803D00E48C078DA
:101AD00004282BD10C48C17810480838405C632892
:101AE0001EDA0948C1780D480838405C401CC0B275
:101AF0000549CA7809490839885412E0D0140020F1
:101B0000C1130020C2130020C31300204A0000208C
:101B100049000020BC1300205A0000207B1A00203E
:101B20006320FB49CA78FB4988542FE0F848C07805
:101B3000012803D0F648C078032827D1F448C1789B
:101B4000F448405C78280ADAF148C178F148405CF2
:101B5000401CC0B2EE49CA78EE49885400E07820B3
:101B6000EB49CA78EB49885410E0E948C078401E38
:101B7000E749C8700846C078E7490978884202DC1E
:101B8000E348C07810B90020E149C870E348007804
:101B9000C0F3C000002889D1E048007820F0080098
:101BA0000830DE4908700120DD490870DD49087001
:101BB000AFE0FFE7DC48007803283BD1D448407809
:101BC000B0B1D348C178D348405C01280ADDD04881
:101BD000C178D048405C401EC0B2CD49CA78CD49DA
:101BE000885400E00120CA49CA78CA4988540EE0E6
:101BF000C748C078401CC649C8700846C078C64966
:101C00000978884203DDC4480078C149C870C348D8
:101C10000078C0F3C00000287BD1C048007820F0D5
:101C200008000830BD4908700120BD490870BD4951
:101C300008706EE0BC480078072834D1B4480078BA
:101C400070B1B348407858B9B148C078042807DC6F
:101C50000120AF494870B2490870B249087058E095
:101C6000AB480078C0B1AA484078A8B1A94D00207F
:101C7000A7494870002407E015F8011B04F1500043
:101C80000BF058FF601CC4B2052CF5DB0120A44901
:101C90000870A44908703CE00120A14908700320A5
:101CA000A049087035E0A048007890B39B480078C0
:101CB000C0F3C00068BB99480078C0F3001040BB77
:101CC00096480078C0F3401018BB94480078C0F3E1
:101CD0008010F0B99148007820F0400040308F49E2
:101CE00008700846007820F0200020300870084670
:101CF000007820F01000103008700846007820F0BE
:101D000008000830087001208549087003208549C3
:101D1000087000208449087070BD70B58248007852
:101D20000C2817D17A48407818B1002078494870BB
:101D30000AE003207D4908707D490870012074493C
:101D4000887008460079C870012075490870754987
:101D5000087061E1744800780E287DD16C484078A5
:101D6000002868D06A48C07801280BD06848C0783D
:101D7000042807D06648C078052803D06448C07896
:101D800006281AD16248C17862480838405C782831
:101D90000CDA5F48C1785F480838405C401CC0B22C
:101DA0005B49CA785B490839885400E07820584973
:101DB000CA7858490839885450E05548C0780228F4
:101DC0001AD15348C17853480838405C96280CDA39
:101DD0004F48C1784F480838405C401CC0B24C495D
:101DE000CA784C490839885400E096204849CA7896
:101DF00048490839885431E04548C07803282DD136
:101E00004348C17843480838405CF0280CDA404821
:101E1000C17840480838405C401CC0B23C49CA7890
:101E20003C490839885400E0F0203949CA783949DA
:101E30000839885412E03648C078401E3449C870CA
:101E40000846C07834490978884202DC3048C078B6
:101E500020B900202E4900E013E0C8702F48007818
:101E6000C0F3C00000280BD12C48007820F00800F7
:101E700008302A490870012029490870294908704A
:101E8000CAE029480078032854D121484078E8B1B5
:101E90001F48C07848B31E48C1781E480838405CC7
:101EA00001280CDD1A48C1781A480838405C401EE9
:101EB000C0B21749CA7817490839885400E0012090
:101EC0001349CA781349083988540EE01048C0787D
:101ED000401C0F49C8700846C0780F4909788842ED
:101EE00003DD0D4800780A49C8700C480078C0F33B
:101EF000C0000028C4D10948007820F0080008304C
:101F0000064908700120064908700649087083E0F8
:101F1000C3130020731A0020BC1300205A000020B5
:101F20004A00002049000020D0140020C1130020E6
:101F3000C2130020FA480078072837D1F948007802
:101F400088B1F848407870B9F648C07806280ADCAD
:101F5000F448C07838B10120F2494870F24908705D
:101F6000F249087058E0EF480078C0B1ED48407879
:101F7000A8B1EF4D0020EB494870002407E015F8A8
:101F8000011B04F148000BF0D5FD601CC4B2082C05
:101F9000F5DB0120E4490870E44908703CE00120C9
:101FA000E14908700320E149087035E0DC48007819
:101FB00090B3E0480078C0F3C00068BBDD4800780B
:101FC000C0F3001040BBDB480078C0F3401018BBE2
:101FD000D8480078C0F38010F0B9D648007820F0D7
:101FE00040004030D34908700846007820F02000B7
:101FF000203008700846007820F01000103008707B
:102000000846007820F00800083008700120C64912
:1020100008700320C54908700020C149087070BDD0
:1020200070B5BF4800780C2817D1BE48407818B169
:102030000020BC4948700AE00320BF490870BF492E
:1020400008700120B749887008460079C8700120DF
:10205000B5490870B5490870B1E1B14800780E285B
:102060007ED1B048407800287BD0AE48C078D0B947
:10207000AC48C178AE480838405C63280CDAA948FF
:10208000C178AB480838405C401CC0B2A549CA784A
:10209000A7490839885400E06320A249CA78A449B6
:1020A0000839885478E09F48C078022803D09D48BA
:1020B000C07803281AD19B48C1789D480838405CF5
:1020C00078280CDA9748C17899480838405C401C59
:1020D000C0B29449CA7896490839885400E07820FB
:1020E0009049CA7892490839885455E08D48C0789B
:1020F00004281AD18B48C1788D480838405CF028F4
:102100000CDA8848C1788A480838405C401CC0B264
:102110008449CA7886490839885400E0F02081490A
:10212000CA7883490839885436E07E48C078052843
:1021300003D07C48C07806282ED17A48C1787C48E4
:102140000838405C1E280FDA7648C178784808388D
:10215000405C401CC0B27349CA787549083901E037
:102160002DE008E0885400E01E206E49CA787049CE
:102170000839885410E06B48C078401E6949C8701F
:102180000846C0786E490978884202DC6548C07804
:1021900010B900206349C87066480078C0F3C000D9
:1021A00000280BD16348007820F00800083061490E
:1021B000087001205C4908705C490870FFE05848CD
:1021C0000078032874D157484078E8B35548C07860
:1021D00058B15448C078042807D05248C078052820
:1021E00003D05048C07806281AD14E48C1785048CC
:1021F0000838405C01280CDD4A48C1784C48083852
:10220000405C401EC0B24749CA78494908398854E1
:1022100000E001204349CA7845490839885433E031
:102220004048C078022803D03E48C07803282BD10C
:102230003C48C1783E480838405C00280EDD3948EB
:10224000C1783B48083800E00FE0405C401EC0B257
:102250003449CA7836490839885400E000203149A9
:10226000CA783349083988540EE02E48C078401C9B
:102270002C49C8700846C07831490978884203DD86
:102280002F4800782749C8702A480078C0F3C0005A
:1022900000280BD12748007820F008000830254995
:1022A00008700120204908702049087087E0FFE786
:1022B0001B48007807284CD11A48007890B119487B
:1022C000407878B91748C07806280BDC1548C078E4
:1022D000012807D001201349487013490870134999
:1022E00008706CE00F480078C8B10E484078B0B173
:1022F0000F4D083D00200B494870002407E015F8F9
:10230000011B04F140000BF015FC601CC4B2082C4A
:10231000F5DB012004490870044908704FE011E022
:10232000D0140020C31300204A00002049000020E0
:102330006B1A00205A000020C1130020C213002095
:10234000BC1300200120FE4908700320FD490870DD
:1023500035E0FD48007890B3FC480078C0F3C00039
:1023600068BBFA480078C0F3001040BBF74800781B
:10237000C0F3401018BBF5480078C0F38010F0B9E6
:10238000F248007820F040004030F04908700846DC
:10239000007820F02000203008700846007820F0F7
:1023A0001000103008700846007820F0080008304F
:1023B00008700120E24908700320E24908700020FB
:1023C000E149087070BD70B5DF4800780C2817D15E
:1023D000DF48407818B10020DD4948700AE003204A
:1023E000DC490870DC4908700120D949887008462A
:1023F0000079C8700120D2490870D24908701EE1E6
:10240000D14800780E2860D1D1484078002838D0D3
:10241000CF48C078B0B9CE48C178D048405C632876
:102420000ADACB48C178CD48405C401CC0B2C849EC
:10243000CA78CA49885400E06320C549CA78C749A8
:1024400088542FE0C248C078012803D0C048C07823
:10245000022827D1BE48C178C048405C78280ADAF3
:10246000BB48C178BD48405C401CC0B2B849CA787E
:10247000BA49885400E07820B549CA78B7498854E9
:1024800010E0B348C078401EB149C8700846C07813
:10249000B3490978884202DCAD48C07810B9002001
:1024A000AB49C870A9480078C0F3C0000028A6D185
:1024B000A648007820F008000830A44908700120E0
:1024C0009F4908709F490870B9E09F480078032829
:1024D00046D19F48407808B39D48C07838B19C48A1
:1024E000C078012803D09A48C078022825D198489E
:1024F000C1789A48405C01280ADD9548C178974820
:10250000405C401EC0B29249CA789449885400E0A9
:1025100001208F49CA78914988540EE08C48C078D0
:10252000401C8B49C8700846C0788D49097888429C
:1025300003DD8B4800788649C87084480078C0F372
:10254000C00000287BD18148007820F008000830C6
:102550007E49087001207A4908707A4908706EE057
:1025600079480078072834D17948007870B17848E4
:10257000407858B97648C078022807DC01207449B1
:1025800048706F4908706F49087058E070480078CB
:10259000C0B16F484078A8B1704D00206C494870B8
:1025A000002407E015F8011B04F138000BF0C2FA13
:1025B000601CC4B2032CF5DB01206149087061493D
:1025C00008703CE001205E49087003205D490870F6
:1025D00035E05D48007890B35C480078C0F3C000F7
:1025E00068BB5A480078C0F3001040BB57480078D9
:1025F000C0F3401018BB55480078C0F38010F0B904
:102600005248007820F04000403050490870084699
:10261000007820F02000203008700846007820F074
:102620001000103008700846007820F008000830CC
:1026300008700120424908700320424908700020B8
:102640004149087070BD10B53F4800780C2817D17B
:102650003F48407818B100203D4948700AE0032007
:102660003C4908703C490870012039498870084687
:102670000079C8700120324908703249087009E1B8
:10268000314800780E2841D131484078D0B13048E7
:10269000C078012827D13148383890F83100F02827
:1026A0000ADA2E48383890F83100401CC0B22B4965
:1026B000383981F8310000E0F0202849383981F8B4
:1026C000310010E02248C078401E2149C8700846F9
:1026D000C07823490978884202DC1D48C07810B9C7
:1026E00000201B49C87019480078C0F3C0000028BA
:1026F000C5D11648007820F008000830134908704A
:1027000001200F4908700F490870C3E00E48007897
:10271000032851D10E48407860B30D48C078012895
:1027200037D10E48383890F8310001281DDD0B48AC
:10273000383890F83100401EC0B20849383911E0ED
:102740004A00002049000020D01400205A00002038
:10275000C3130020C1130020C21300205B1A002005
:10276000BC13002081F8310000E00120FE4981F80F
:1027700031000EE0FD48C078401CFC49C870084696
:10278000C078FB490978884203DDF9480078F749A9
:10279000C870F8480078C0F3C00000287AD1F54826
:1027A000007820F008000830F24908700120F24952
:1027B0000870F24908706DE0F1480078072833D1BD
:1027C000EA480078A0B1E948407888B9E748C0787D
:1027D000012806D1E5494870E7490870E7490870C3
:1027E00058E00120E44908700320E449087051E0F2
:1027F000DE48007888B1DD48407870B10020DB49C0
:102800004870D94890F8311031200BF093F901202D
:10281000D9490870D94908703CE00120D6490870B0
:102820000320D649087035E0D548007890B3D148E8
:102830000078C0F3C00068BBCE480078C0F3001039
:1028400040BBCC480078C0F3401018BBC9480078A2
:10285000C0F38010F0B9C748007820F04000403045
:10286000C44908700846007820F020002030087025
:102870000846007820F010001030087008460078F4
:1028800020F00800083008700120BB4908700320C0
:10289000BA4908700020BA49087010BD70B5B84830
:1028A00000780C2817D1B148407818B10020AF4902
:1028B00048700AE00320B3490870B349087001204A
:1028C000AA49887008460079C8700120AA49087092
:1028D000AA4908705FE1AA4800780E287ED1A34873
:1028E0004078002864D0A148C078032822D09F48AF
:1028F000C07804281ED09D48C07806281AD09B486E
:10290000C17899482830405C63280CDA9748C17830
:1029100095482830405C401CC0B29449CA7892491E
:102920002831885400E063209049CA788E492831C4
:1029300088544EE08D48C07803281AD18B48C1785E
:1029400089482830405C32280CDA8848C1788648AB
:102950002830405C401CC0B28449CA788249283182
:10296000885400E032208149CA787F492831885450
:102970002FE07E48C07804282BD17C48C1787A4863
:102980002830405C1E280CDA7848C1787648283018
:10299000405C401CC0B27549CA78734928318854DC
:1029A00000E01E207149CA786F492831885410E030
:1029B0006E48C078401E6D49C8700846C0786C49A2
:1029C0000978884202DC6948C07810B9002067495C
:1029D000C87068480078C0F3C00000E00EE000282E
:1029E0000BD16448007820F0080008306149087075
:1029F00001206149087061490870CCE060480078A6
:102A0000032843D159484078F0B15848C078062887
:102A100029D05648C17854482830405C00280CDD45
:102A20005248C17850482830405C401EC0B24F49DF
:102A3000CA784D492831885400E000204B49CA78B3
:102A40004949283188540EE04848C078401C47491D
:102A5000C8700846C07846490978884203DD444872
:102A600000784249C87043480078C0F3C00000288D
:102A7000C3D14048007820F0080008303D49087074
:102A800001203D4908703D49087084E03C480078C9
:102A9000072835D13548007870B13448407858B9A6
:102AA0003248C078072807DC012030494870324995
:102AB0000870324908706EE02C480078C8B12B4885
:102AC0004078B0B1284D28350020284948700024AE
:102AD00007E015F8011B04F128000BF02BF8601C2F
:102AE000C4B2082CF5DB0120234908702349087083
:102AF00051E00120204908700320204908704AE075
:102B00001F48007870B31B480078C0F3C00048BB72
:102B100018480078C0F3001020BB16480078C0F3B6
:102B20004010F8B913480078C0F38010D0B91148AC
:102B3000007820F0400040300E49087008460078C8
:102B400020F02000203008700846007820F01000A7
:102B5000103008700846007820F00800083008702F
:102B6000012013E017E00000231A0020C313002007
:102B7000BC1300205A0000204A0000204900002019
:102B8000D0140020C1130020C2130020F94908709E
:102B90000320F94908700020F849087070BDF74813
:102BA00000780C2810D10320F5490870F549087009
:102BB0000120F549887008460079C8700120ED4968
:102BC0000870ED4908708EE0EC4800780E2823D19B
:102BD000ED48C078401EEC49C8700846C078EB4903
:102BE0000978884202DCE848C07810B90020E6493C
:102BF000C870E7480078C0F3C000002873D1E448EB
:102C0000007820F008000830E14908700120D94917
:102C10000870D949087066E0D8480078032821D1A7
:102C2000D948C078401CD849C8700846C078D749F0
:102C30000978884203DDD5480078D349C870D44864
:102C40000078C0F3C00000284DD1D148007820F0B2
:102C500008000830CE4908700120C6490870C649EE
:102C6000087040E0C5480078072806D10120C14916
:102C700008700320C049087035E0C048007890B360
:102C8000C3480078C0F3C00068BBC1480078C0F3F7
:102C9000001040BBBE480078C0F3401018BBBC48D1
:102CA0000078C0F38010F0B9B948007820F04000F7
:102CB0004030B74908700846007820F020002030E6
:102CC00008700846007820F01000103008700846A0
:102CD000007820F00800083008700120A54908702D
:102CE0000320A54908700020A44908707047A34834
:102CF00000780C2810D10320A1490870A149087060
:102D00000120A149887008460079C87001209949BE
:102D10000870994908708EE0984800780E2823D1F1
:102D20009948C078401E9849C8700846C0789749AD
:102D30000978884202DC9448C07810B90020924992
:102D4000C87093480078C0F3C000002873D1904841
:102D5000007820F0080008308D490870012085496E
:102D600008708549087066E084480078032821D1FE
:102D70008548C078401C8449C8700846C07883499B
:102D80000978884203DD814800787F49C87080480F
:102D90000078C0F3C00000284DD17D48007820F0B5
:102DA000080008307A490870012072490870724999
:102DB000087040E071480078072806D101206D496D
:102DC000087003206C49087035E06C48007890B3B7
:102DD0006F480078C0F3C00068BB6D480078C0F34E
:102DE000001040BB6A480078C0F3401018BB684828
:102DF0000078C0F38010F0B96548007820F04000FA
:102E00004030634908700846007820F020002030E8
:102E100008700846007820F010001030087008464E
:102E2000007820F00800083008700120514908702F
:102E3000032051490870002050490870704770B550
:102E40004E4800780C2817D14F48407818B1002020
:102E50004D4948700AE00320494908704949087003
:102E600001204949887008460079C870012041490D
:102E70000870414908704BE1404800780E2860D145
:102E800041484078A0B34048C078002846D03E482A
:102E9000C07801280ED13F48407C1E2806DA3D4804
:102EA000407C401CC0B23B49487400E01E203949B8
:102EB000487433E03448C07802280ED13548807C0D
:102EC000632806DA3348807C401CC0B231498874DC
:102ED00000E063202F49887420E02E48C07C03283E
:102EE00007DA2C48C07C401CC0B22A49C87401E0F3
:102EF00003E003202749C87410E02348C078401E2F
:102F00002149C8700846C07820490978884202DC07
:102F10001D48C07810B900201B49C8701C480078B3
:102F2000C0F3C0000028A6D11948007820F008009E
:102F300008301749087001200E4908700E490870C2
:102F4000E6E00E480078032868D10F484078D8B3EF
:102F50000D48C07818B30C48C078012820D10D481E
:102F6000407C012818DD0B48407C401EC0B2094956
:102F7000487412E04A00002049000020D0140020CC
:102F8000C1130020C2130020C3130020BC13002073
:102F90005A000020231A00200120FE4948742AE02C
:102FA000FD48C178FB481030405C00280DDDFA4830
:102FB000C178F8481030405C401EC0B2F649CA786B
:102FC000F4491031885401E006E00020F249CA7843
:102FD000F049103188540EE0EF48C078401CEE49AB
:102FE000C8700846C078ED490978884203DDEB488F
:102FF0000078E949C870EA480078C0F3C0000028AA
:103000009ED1E748007820F008000830E4490870B5
:103010000120E4490870E449087079E0E348007849
:1030200007283FD1DC480078C0B1DB484078A8B918
:10303000D948C07803280ADCD748C07838B10120C5
:10304000D5494870D7490870D749087060E0012019
:10305000D44908700320D449087059E0CE4800785C
:10306000C8B1CD484078B0B1CA4D10350020CA492A
:103070004870002407E015F8011B04F110000AF065
:1030800059FD601CC4B2052CF5DB0120C549087050
:10309000C54908703CE00120C24908700320C249BC
:1030A000087035E0C148007890B3BD480078C0F39F
:1030B000C00068BBBA480078C0F3001040BBB848F5
:1030C0000078C0F3401018BBB5480078C0F38010FA
:1030D000F0B9B348007820F040004030B0490870A3
:1030E0000846007820F0200020300870084600785C
:1030F00020F01000103008700846007820F008001A
:10310000083008700120A74908700320A6490870FC
:103110000020A649087070BD70B5A44800780C283E
:1031200017D19D48407818B100209B4948700AE0AB
:1031300003209F4908709F490870012096498870B4
:1031400008460079C87001209649087096490870B1
:10315000E3E0964800780E2836D18F48407878B161
:103160008D48C1788B480830405C6E2801D17921A8
:1031700000E06E218848C27886480830815410E00B
:103180008548C078401E8449C8700846C078834985
:103190000978884202DC8048C07810B900207E4956
:1031A000C8707F480078C0F3C0000028D0D17C48A8
:1031B000007820F00800083079490870012079492A
:1031C000087079490870A8E078480078032834D15D
:1031D0007148407878B17048C1786E480830405CDA
:1031E0006E2801D1792100E06E216B48C2786948D0
:1031F000083081540EE06848C078401C6649C870A9
:103200000846C07865490978884203DD634800783C
:103210006149C87062480078C0F3C00000287CD1C2
:103220005F48007820F0080008305D4908700120F0
:103230005C4908705C4908706FE05C4800780728BA
:1032400035D15548007870B15348407858B9524844
:10325000C078042807D001204F49487051490870B0
:103260005149087059E04C480078C8B14A48407844
:10327000B0B1484D0835002047494870002407E0A8
:1032800015F8011B04F108000AF054FC601CC4B2DC
:10329000042CF5DB012043490870434908703CE0E9
:1032A00001204049087003203F49087035E03F483D
:1032B000007890B33A480078C0F3C00068BB384843
:1032C0000078C0F3001040BB35480078C0F34010D0
:1032D00018BB33480078C0F38010F0B9304800784C
:1032E00020F0400040302E4908700846007820F059
:1032F0002000203008700846007820F010001030C0
:1033000008700846007820F0080008300870012096
:1033100024490870032024490870002023490870BC
:1033200070BD70B5214800780C2823D11A48407828
:1033300068B1002018494870002405E01E48005D6F
:103340001E490855601CC4B2062CF7DB09E00320B7
:10335000174908701749087001200F49887000202C
:10336000C87001200F4908700F49087000201449E7
:103370000870C2E10D4800780E2866D106484078F2
:1033800058B30548C078032827D10248C07864287C
:103390001FDA17E0231A0020C3130020BC130020FB
:1033A0005A0000204A00002049000020D0140020CC
:1033B000C1130020C2130020721300206C130020E0
:1033C000181A0020FE48C078401CC0B2FC49C870E2
:1033D00000E06420FA49C8708FE1FA48407808B3E9
:1033E000F848C07805281DD1F7480078F749085CEF
:1033F000092809DAF4480078085C401CC0B2F24998
:103400000978F24A505400E00020EF490978EF4A69
:103410005054ED4800781146095CEB480278401D95
:1034200081546AE1E748C078401EE649C870084602
:10343000C078E7490978884203DCE248C078002870
:1034400097D10020DF49C87057E1E248007803288F
:1034500070D1DC48407890B1DA48C07803280ED1AA
:10346000D748C078002806DDD548C078401EC0B2D5
:10347000D349C87000E00020D149C8704CE0D14861
:10348000407808B3CF48C07805281DD1CE480078D1
:10349000CE49085C002809DDCB480078085C401E56
:1034A000C0B2C9490978C94A505400E00920C64948
:1034B0000978C64A5054C44800781146095CC2488D
:1034C0000278401D815427E0BE484078A8B1BD482D
:1034D000C07858B1BB48C078012807D0B948C07837
:1034E000022803D0B748C078042806D10120BA4981
:1034F00008700320B94908700EE0B248C078401C3B
:10350000B049C8700846C078B1490978884203DDDF
:10351000AF480078AB49C870B148007820F0080087
:103520000830AF4908700120AB490870AB490870FA
:10353000E3E0FFE7A748007807286FD1A1480078AB
:10354000E0B1A0484078C8B99E48C078022803D0AE
:103550009C48C078042805D101209F4908700320A9
:103560009E490870012097494870002096490870CC
:1035700001209949087099490870BEE09148007887
:10358000002857D08F484078002853D000208D491C
:1035900048700846C078B8B992A2122100200BF0FA
:1035A00095F809F0D7FF4EF660200AF0A3FB4EF61F
:1035B00060200AF09FFB01208D4908708D4A12217E
:1035C00000200BF083F82FE07E48C07801280FD14F
:1035D00089A212210BF07AF809F0EAFF41F270702B
:1035E0000AF088FB834A122101200BF06FF81BE0E0
:1035F0007448C078052812D1744D00240BE015F8EA
:10360000011B04F1C8000AF095FA7048005D7D497D
:103610000855601CC4B2062CF1DB05E011E06848D7
:10362000C17803200AF086FA01206B4908706B49C3
:10363000087062E00120684908700320674908703B
:103640005BE0644800780F2821D15E484078B8B12B
:103650005C48C078052813D15B480078052806DA55
:1036600059480078401CC0B25749087000E000205B
:1036700055490870012058490870584908703CE0C5
:1036800001205549087003205449087035E051481D
:10369000007890B352480078C0F3C00068BB50482F
:1036A0000078C0F3001040BB4D480078C0F34010D4
:1036B00018BB4B480078C0F38010F0B94848007838
:1036C00020F040004030464908700846007820F05D
:1036D0002000203008700846007820F010001030DC
:1036E00008700846007820F00800083008700120B3
:1036F000394908700320394908700020354908709D
:1037000070BD344800780C2817D12E48007828B1B5
:1037100002203D4908703D49087004E001203A4903
:1037200008703A490870002026498870C870012046
:103730002949087029490870C7E0264800780E28F2
:1037400023D12048C078401E1E49C8700846C07862
:103750001F490978884202DC1A48C07810B9002055
:103760001849C8701E480078C0F3C0000028E3D193
:103770001B48007820F00800083019490870012023
:1037800015490870154908709FE012480078032811
:103790004AD10C48C078401C0A49C8700846C07815
:1037A0000B490978884203DD094800780549C8704B
:1037B0000B480078C0F3C000002834D1084827E047
:1037C000231A0020C3130020181A00206C130020B5
:1037D000BC130020D01400204A0000204900002023
:1037E0005A000020D4CBD0D0D6D02E2E2E000000F0
:1037F000B813002030060008D4CBD0D0D6D02E2E5F
:103800002E2E000072130020C1130020C2130020CE
:10381000007820F008000830FE4908700120FE49B9
:103820000870FE49087050E0FD480078072816D15E
:103830000420FC490870FC490870FC48C078FB492A
:1038400008710846C078401C88700020C8700120AC
:10385000F7490870F0490870F049087035E0F04801
:10386000007890B3EB480078C0F3C00068BBE9482B
:103870000078C0F3001040BBE6480078C0F3401069
:1038800018BBE4480078C0F38010F0B9E148007834
:1038900020F040004030DF4908700846007820F0F2
:1038A0002000203008700846007820F0100010300A
:1038B00008700846007820F00800083008700120E1
:1038C000D54908700320D54908700020D4490870F4
:1038D000704770B50220D4490870D14800780C2890
:1038E0000ED10120CF490870CF490870CF498870A8
:1038F0000020C8700120C8490870C849087032E12A
:10390000C74800780E282FD1CA480078CA49085CF9
:10391000092809DAC7480078085C401CC0B2C549CC
:103920000978C54A505400E00020C2490978C24ACB
:103930005054C04800781146095CBE480278401DCA
:103940008154B4480078C0F3C0000028D7D1B148F2
:10395000007820F008000830AE4908700120AE4918
:103960000870AE490870FEE0AD48007803282FD1FA
:10397000B0480078B049085C002809DDAD480078FF
:10398000085C401EC0B2AB490978AB4A505400E015
:103990000920A8490978A84A5054A6480078114639
:1039A000095CA4480278401D81549A480078C0F30D
:1039B000C0000028A3D19748007820F00800083004
:1039C0009449087001209449087094490870CAE02D
:1039D00093480078072878D1974800789749097864
:1039E00088422BD19448407894494978884225D11F
:1039F000914880789149897888421FD18E48C07853
:103A00008E49C978884219D18B4800798B49097948
:103A1000884213D1884840798849497988420DD134
:103A200001208249087003207E4908707E49087091
:103A300001207E4988700020C87094E07E4800789C
:103A400006283BD17C484078B0BB7B48807803286F
:103A500034D17948C07878BB7748007909282DD1CE
:103A60007548407940BB002411E0744D0220724932
:103A700008552946085502216E48401D015515F884
:103A8000011B04F1C8000AF055F8601CC4B2062CF2
:103A9000EBDB012065490870032062490870624928
:103AA00008700120614988700020C87001205A49BF
:103AB00008705A49087056E000E006E001205649B7
:103AC00008700320554908704DE0554800780F28CC
:103AD00013D158480078052806DA56480078401C6B
:103AE000C0B25449087000E000205249087001201B
:103AF000494908704949087035E04948007890B351
:103B000044480078C0F3C00068BB42480078C0F366
:103B1000001040BB3F480078C0F3401018BB3D4840
:103B20000078C0F38010F0B93A48007820F04000E7
:103B30004030384908700846007820F020002030D6
:103B400008700846007820F0100010300870084611
:103B5000007820F008000830087001202E49087015
:103B600003202E49087070BD2D4909780C290FD10A
:103B700000212C4A11702C4A1170FF212B4A9170A0
:103B80000021D1700121244A1170244A1170CDE026
:103B9000234909780E2921D12449C978491E234A8D
:103BA000D1701146C978264A1278914203DD244922
:103BB00009781E4AD17017490978C1F3C00100295C
:103BC000E5D11449097821F008010831114A117032
:103BD0000121114A1170114A1170A7E010490978AA
:103BE00003293AD11149C978491C104AD1701146AC
:103BF000C978134A1278914202DD00210B4AD17034
:103C000004490978C1F3C0010029C0D101490978EC
:103C100018E000005A0000204A000020490000205F
:103C2000D0140020C1130020C2130020C3130020B1
:103C3000B8130020181A00206C1300207213002003
:103C4000BC13002021F008010831FB4A117001214A
:103C5000FA4A1170FA4A117068E0FA49097807299E
:103C60002ED1F949C97801291CD1F74A11700221D6
:103C7000F64A1170F64A1170002003E00021F54A5F
:103C80001154401C0628F9DB0121EC4A1170EC4A62
:103C90001170002003E00022EF490A54401C06285E
:103CA000F9DB07E00021E84A11700321E74A1170AF
:103CB000E74A11700121E44A91700021D17035E08A
:103CC000E049097891B3DC490978C1F3C00169BBC7
:103CD000D9490978C1F3001141BBD7490978C1F32B
:103CE000401119BBD4490978C1F38011F1B9D24907
:103CF000097821F040014031CF4A1170114609780E
:103D000021F02001203111701146097821F01001B5
:103D1000103111701146097821F008010831117035
:103D20000121C64A11700321C54A1170704710B5B0
:103D3000C44800780C2828D1C8480078F0B9C84891
:103D40000078D8B9C7480078C0F38000B0B9052022
:103D5000BE490870BE4908700020BB498870C87011
:103D60000120C14908700020BB49491FC8700120CB
:103D7000B2490870B249087001F0ADBE0120AF49E8
:103D800008700320AE490870F6E7AE4800780E28A8
:103D90005AD1B6480078012804D1B5480088401CA3
:103DA000B3490880AD480078C8BBAD480078B0BBC7
:103DB000AC480078C0F3800088BBAE480078C0F300
:103DC000401060BBAC480078052805DAAA480078A6
:103DD000401CA949087002E00120A74908709648D4
:103DE000007820F0080008309349087000240EE0A5
:103DF000A1490978491E4FF4807202EB0121214448
:103E000088B209F06DFE9D490855601CC4B2C82CEB
:103E1000EEDB01208949087089490870ACE7FFE7AB
:103E200085480078C0F3C0000028A5D182480078FA
:103E300020F0080008308049087001207F49087090
:103E400003207F49087097E77E480078032842D115
:103E500086480078012804D185480088401E84499E
:103E600008807E48007810BB7D480078F8B97D480E
:103E70000078C0F38000D0B97E480078C0F34010CD
:103E8000A8B90620714908707149087000206E4970
:103E90008870C8707A4908707A4908706E49491F5D
:103EA000C8700120654908706549087064E7624878
:103EB0000078C0F3C0000028B0D15F48007820F03F
:103EC000080008305C49087001205C490870032034
:103ED0005B49087050E75B480078072822D15F48AB
:103EE000007800289AD15E480078002896D15D4875
:103EF0000078C0F38000002890D15E480078C0F3BD
:103F0000401000288AD1012050490870504908709B
:103F10004D4988700020C870012048490870484900
:103F2000087029E747480078102850D14B4800789E
:103F300078B94B48007860B94A480078C0F38000EF
:103F400038B94C480078C0F3401010B94E4800789A
:103F500030B90120394908700320394908700BE74E
:103F600001203E490870494908704948007820F00E
:103F70000100401C464908703A48007820F0800053
:103F800080303849087000204249086001204249C9
:103F9000C1F8A8014148007840B14148007820F0BC
:103FA00001003F49087000203E4908703E480078F3
:103FB00020F040003C49087000203C490870012076
:103FC0001E4908701E49087028490870D4E61D482B
:103FD00000780B286ED12148007890B920480078ED
:103FE00078B920480078C0F3800050B9264800789E
:103FF00038B12F48007820B10120104908701049CD
:1040000008701648007838B91548007820B9154866
:104010000078C0F3800038B11B48007820B1154803
:104020000078C0F3401030B101200449087003202B
:1040300003490870A0E63EE05A0000204A00002034
:1040400049000020D0140020C3130020C113002019
:10405000C21300206C1300201D1A00200100002054
:104060000000002057000020B8130020B9130020E2
:10407000161500205B000020D61300207C180020BD
:10408000BA130020BB130020261500204C18002076
:104090005C000020848121420080214227150020FD
:1040A0005E0000203E0000205D0000202500002072
:1040B000270000206CE10020FE490870FE490870CE
:1040C000FE48007820F00100FC490870FC480078A8
:1040D00020F00400FA4908700020FA490870FA49F3
:1040E0000870FA490870FA490870FA490870012006
:1040F000F9490860F948007820F00100F749087094
:10410000F748007820F08000F5490870F5480078FD
:1041100020F08000F3490870F048007820F0020099
:10412000EE4908700020F0490870F0490870F04925
:104130000870F0490870F0490870E1480078C0F351
:10414000001080B1ED4890F84900ED490870EB4847
:1041500090F84C00EB490870D848007820F0020035
:10416000801CD6490870D648007820F01000D44949
:104170000870D248007820F00400D0490870D04878
:10418000007820F00800CE490870CC48007820F074
:104190000800CA4908700020D7490870DA49087039
:1041A000CE48007820F00400CC490870084600781A
:1041B00020F0080008700020D44908700120D4497C
:1041C00008600020D3490870C448007820F010002F
:1041D000C24908700020D04908700120CF49C1F8B9
:1041E000B0010020CE490870BC48007820F04000A3
:1041F000BA4908700846007820F0200008700020B6
:10420000C84908700120C549C1F8AC01AB48007825
:1042100020F01000A94908700846007820F020001E
:1042200008700846007820F0400008700120BE4960
:1042300008600020BD490870BD490870BD4908707C
:10424000BD48007820F02000BB4908700020BB4921
:104250000870BB4908700120BA49C1F89801B648F6
:10426000007820F04000B44908709448007820F0AD
:104270008000924908700020B3490870AE48007869
:1042800020F08000AC490870B048007820F00800A9
:10429000AE4908700120AB49C1F89C01AC480078D8
:1042A0005A2818D1AB480078A8B9AB48007890B923
:1042B000924890F84A00A7490870904890F84D003D
:1042C000401DA5490870A148007820F0400040300A
:1042D0009E4908701BE09E480078472817D19F48E8
:1042E0000078A0B99E48007888B9844890F84B00BF
:1042F0009A490870814890F84E00401D984908700E
:104300009248007820F04000403090490870904872
:104310000078A0B98F48007888B98F48007870B9C4
:104320008E48007858B98E48007840B974480078B3
:1043300028B97448007810B900208A490870002014
:10434000834908708148007820F080007F49087018
:104350000846007820F00400087001206C491039EC
:10436000086000208049C1F8A80180490870012038
:104370007F4908707F49087000207F4908705F48B6
:1043800090F829007D49087000207D49C870F3E449
:104390007C4800780A286AD147480078002867D00E
:1043A00065480078C009002862D163480078C0F3EE
:1043B00080100028F8D142480078C0F3800000281F
:1043C000F2D148480078C0F340100028ECD16E4884
:1043D00000780028E3D03948007800F00100002878
:1043E000E2D16A480078C0F3400000283DD13B4844
:1043F000007800F00100C8BB31480078C0F3C0006D
:10440000A0BB3648007820F00100401C33490870FA
:104410003348007820F08000314908703148007836
:1044200020F080002F4908702C48007820F002000E
:10443000801C2A49087003205549087053480078A9
:1044400020F00400514908701D48007820F0080051
:104450001B4908701948007820F0040017490870BB
:104460000846007820F00800087007E101E0C7E185
:104470000AE11A48007800F00100C8B1104800783D
:10448000C0F3C000A0B91548007820F0010013491E
:1044900008701348007820F0800011490870114816
:1044A000007820F080000F4908700C48007871E017
:1044B00091E0000000000020010000205D000020CD
:1044C000570000204E0000204F0000205000002028
:1044D0005100002052000020B0012242580000206C
:1044E0005A0000205B0000204218002043180020E2
:1044F0001600002017000020DE130020231A0020E1
:104500002C0000202D00002047180020DF13002081
:104510009481214248180020DA1300200000214233
:1045200049180020DB130020A0012142461800207A
:104530004518002044180020590000201B000020CE
:104540004A18002000002242DC1300205C000020FA
:104550001C000020380000203A0000203900002014
:104560003B0000204C18002000802142DD13002079
:104570004A00002049000020B9130020100000204C
:10458000181A0020D0140020261500205E000020FC
:104590003C00002020F00200FE490870FE48007830
:1045A00020F008000830FC490870FC48007820F032
:1045B0000400001DF94908700846007820F0080042
:1045C00008700320F6490870F648007820F00400CF
:1045D000F449087052E0EF48007820F00100ED49FE
:1045E0000870F148007820F08000EF490870EF482B
:1045F000007820F08000ED490870E648007820F04F
:104600000200E44908700020E9490870E94908708F
:10461000E9490870E9490870DF48007820F008008F
:10462000DD490870DD48007820F00400DB4908709F
:104630000846007820F008000870D7480078C0F3DA
:10464000001080B1DE4890F84900DE490870DC486F
:1046500090F84C00DC490870D048007820F0020047
:10466000801CCE490870CC48007820F01000CA4960
:1046700008700020CE490870CE4908700120D34947
:104680000870D3490870B7E0D248007800287DD17F
:10469000D1480078C009002878D1CF480078C0F30D
:1046A0008010002872D1BC480078C0F38000002838
:1046B0006CD1BE480078C0F34010002866D1C748CE
:1046C0000078002862D0B4480078C0F3C000002809
:1046D0005CD1C348007888BB0120C1490870002024
:1046E000C0490870C0490870C04908600120C0492D
:1046F000C1F8A801A848007820F080008030A649C1
:104700000870AF4890F82900BA4908700120BA49EA
:104710000870BA48007840B1A248007820F0010043
:10472000A04908700020B64908709C48007820F025
:1047300040009A4908700020B249087095480078F6
:1047400000F0010028BB9348007820F00100401CD5
:10475000904908709448007820F0800092490870D1
:104760009248007820F080009049087089480078CD
:1047700020F00200801C87490870032088490870D7
:104780008848007820F00400864900E02EE0087098
:1047900026E08048007820F001007E4908708248B9
:1047A000007820F08000804908708048007820F070
:1047B00080007E4908707748007820F00200754933
:1047C00008707548007820F00800734908700020D0
:1047D00077490870774908707749087077490870F9
:1047E00001207A4908707A49087005E0012077496C
:1047F000087003207649087000208349C87019E4C6
:104800008248007804287DD172480078D0B372487D
:104810000078C009B0BB70480078C0F3801088BB36
:104820005D480078C0F3800060BB60480078C0F34A
:10483000401038BB6948007820B35848007800F031
:104840000100F8B957480078C0F34000A8BB704891
:10485000008868490978884215DA4E4800786FEA7E
:1048600090004C49097860F382014A480170007851
:10487000C0F3800008B34748007820F0080045499D
:1048800008701AE01FE0434800786FEA9000414941
:10489000097860F382013F4801700078C0F380001E
:1048A00028B13C48007820F008003A4908700120FF
:1048B00046490870032046490870012043490870A2
:1048C00043490870D8E043480078E8BB4248007884
:1048D000C009C8BB40480078C0F38010A0BB2E4878
:1048E0000078C0F3800078BB30480078C0F34010F7
:1048F00050BB3A48007838B327480078C0F3C0006E
:1049000010BB00E0BCE03648007898BB0120344979
:104910000870002033490870334908703349086033
:1049200001203349C1F8A8011B48007820F080001D
:10493000803019490870224890F829002D490870E4
:1049400001202D49087000E090E02C48007840B12B
:104950001448007820F0010012490870002028490E
:1049600008700E48007820F040000C4908700020C4
:1049700024490870264800881E490978884255DA7B
:10498000044800786FEA90000249097860F38201D8
:1049900000483FE058000020570000205D00002044
:1049A0003C0000205E0000205A0000205B00002038
:1049B0004218002043180020160000201700002095
:1049C000231A00202C0000202D0000204A00002087
:1049D0004900002001000020590000202615002079
:1049E00000000020190000201A00002084812142CC
:1049F00000802142100000204C18002027150020C4
:104A00003E00002025000020181A0020D0140020AD
:104A10001615002001700078C0F3800000B3FD4837
:104A2000007820F00800FB49087019E0F948007888
:104A30006FEA9000F749097860F38201F548017048
:104A40000078C0F3800028B1F248007820F0080018
:104A5000F04908700120F04908700320EF49087000
:104A60000120ED490870ED49087005E00120EA4990
:104A700008700320E94908700020E949C87086E4FD
:104A8000E848007808287DD1E7480078D0B3E748A7
:104A90000078C009B0BBE5480078C0F3801088BB3F
:104AA000E3480078C0F3800060BBE2480078C0F3C0
:104AB000401038BBE048007820B3E048007800F0B0
:104AC0000100F8B9DE480078C0F34000A8BBDD481B
:104AD0000088DD490978884215DACE4800786FEA07
:104AE0001010CC49097860F30411CA4801700078AD
:104AF000C0F3001008B3C748007820F02000C54973
:104B000008701AE01FE0C34800786FEA1010C1492E
:104B1000097860F30411BF4801700078C0F30010F9
:104B200028B1BC48007820F02000BA490870012064
:104B3000B94908700320B94908700120B6490870C6
:104B4000B649087097E0B8480078E8BBB7480078E5
:104B5000C009C8BBB5480078C0F38010A0BBB448FA
:104B60000078C0F3800078BBB2480078C0F34010F2
:104B700050BBB148007838B3AD480078C0F3C000EE
:104B800010BB00E07BE0B148007898BB0120AF4942
:104B900008700020AE490870AE490870AE49086040
:104BA0000120AE49C1F8A801A148007820F080009A
:104BB00080309F490870AA4890F82900A2490870DF
:104BC0000120A849087000E04FE0A748007840B1F4
:104BD0009B48007820F00100994908700020A34903
:104BE00008709648007820F0400094490870002032
:104BF0009F4908709348008893490978884214DADD
:104C0000844800786FEA10108249097860F3041133
:104C1000804801700078C0F3001000B37D48007830
:104C200020F020007B49087019E07A4800786FEA8C
:104C300010107849097860F3041176480170007803
:104C4000C0F3001028B17348007820F020007149AB
:104C50000870012070490870032070490870012015
:104C60006D4908706D49087005E001206A490870B7
:104C700003206A49087000206949C870BFE5694887
:104C800000780D2875D16848007878B367480078B7
:104C9000C00958BB65480078C0F3801030BB644839
:104CA0000078C0F3800008BB62480078C0F3401071
:104CB000E0B961480078C8B16048007800F00100B0
:104CC000A0B95F480078C0F3400048B95148007867
:104CD0006FEA90104F49097860F386114D480170D2
:104CE00001204D4908704D49087067E0FFE74E48C4
:104CF0000078E8BB4D480078C009C8BB4B48007835
:104D0000C0F38010A0BB4A480078C0F3800078BB95
:104D100048480078C0F3401050BB4748007838B38B
:104D200043480078C0F3C00010BB4848007878BB07
:104D3000012046490870002045490870454908701F
:104D40004549086001204549C1F8A8013848007864
:104D500020F08000803036490870012041490870F9
:104D60004148007858B13648007820F0010001E051
:104D70001EE027E03249087000203C4908702F48A7
:104D8000007820F040002D49087000203849087054
:104D9000204800786FEA90101E49097860F3861168
:104DA0001C48017001201C4908701C49087005E06E
:104DB000012019490870032018490870002018497B
:104DC000C8701CE51748007801287DD11748007885
:104DD000C00900284ED115480078C0F38010002883
:104DE00048D113480078C0F38000002842D1114810
:104DF0000078C0F34010E8BB0F480078D0B30F48EC
:104E0000007800F00100A8BB09480078C0F3C0009A
:104E100080BB30E0580000204A00002049000020FC
:104E2000181A0020D0140020010000205900002092
:104E3000570000205B000020261500205D000020A8
:104E40005E00002016150020100000200000002049
:104E5000190000201A000020848121420080214294
:104E6000231A00204C180020271500203E000020A7
:104E700025000020BAE0FE48007830B3FD480078F5
:104E8000C0F3400030BBFC48007818B3FB48007802
:104E900020F01000F94908700846007820F0200042
:104EA00008700846007820F040000870F448007848
:104EB00020F02000F24908700020F2490870F24901
:104EC00008700120F14901E09AE004E00870032035
:104ED000EF4908704EE0EF480078E8BB0120ED494B
:104EE00008700020EC490870EC490870EC49086033
:104EF0000120EC49C1F8A801EB48007820F08000BF
:104F00008030E94908700120E8490870E8480078D5
:104F100040B1D848007820F00100D6490870002040
:104F2000E4490870E0480078C0F3C000A0B1D3485D
:104F3000007820F01000D14908700846007820F071
:104F4000200008700846007820F040000870CC4827
:104F5000007820F0200000E00CE0C9490870002033
:104F6000C8490870C84908700120C8490870032062
:104F7000C7490870C1480078C0F3401020B1BF484D
:104F80000078C0F38010C0B9BC4800786FEA1010F8
:104F9000BA49097860F30411B84801700078C0F389
:104FA000001030B1C44890F83100401CB649087078
:104FB00016E00020B449087012E0B048007820F0F4
:104FC0001000AE4908700846007820F020000870F4
:104FD0000846007820F0400008700020AA490870B8
:104FE0000120AA490870AA49087005E00120A749D4
:104FF00008700320A64908700020B049C8703EE53B
:10500000AF48007805287DD199480078E8B39C48DE
:105010000078C009C8BBA4480078C0F38000A0BBDA
:10502000A8480078C0F3401078BBA748007860B368
:105030009248007800F0010038BB8E480078C0F339
:10504000400048B98D4800786FEAD0108B49097844
:1050500060F3C7118948017088480078C00990B38F
:105060008748007820F04000403085490870974814
:10507000007820F00400954908700846007820F078
:10508000100008700846007800E029E020F0400099
:1050900008707B48007820F0200079490870774834
:1050A000007820F01000754908700846007820F05C
:1050B000200008700846007820F0400008700020AA
:1050C0007149087006E0FFE76D48007820F0400065
:1050D0006B49087001206D4908706D49087073E1D3
:1050E00063480078002874D165480078C00900281A
:1050F0006FD16D480078C0F38000002869D17148F5
:10510000007800E064E1C0F34010002861D16E48EF
:10511000007800285DD05F48007818BB01205D4909
:10512000087000205C4908705C4908705C490860A0
:1051300001205C49C1F8A8015B48007820F080009C
:105140008030594908700120584908705848007843
:1051500040B14848007820F001004649087000201E
:105160005449087046480078C0F3801090B35848FE
:10517000007878BB5748007860BB5748007848BB38
:105180005648007830BB3E48007820F040003C494B
:1051900008700020384908703848007820F08000F6
:1051A000364908704048007820F008003E490870F1
:1051B0000846007820F0100008703048007820F091
:1051C00004002E4908700846007820F00800087096
:1051D000EEE0F3E0FFE7344800786FEAD0003249B0
:1051E000097860F3C301304801700078C0F3C00053
:1051F000E0B30020204908703448007820F0040013
:10520000324908700846007820F0100008700846FF
:10521000007820F0400008701948007820F0200045
:10522000174908701548007820F0100013490870DD
:105230000846007820F0200008700846007820F02A
:10524000400008700020104908701748007820F0CE
:105250001000154908700948007820F0040007493B
:1052600008700846007820F0080039E06EE0000081
:10527000010000205E0000204A1800205D00002090
:10528000590000201B000020250000204A000020BB
:105290004900002000000020190000201A00002012
:1052A0008481214200802142570000204C180020B8
:1052B000271500203E000020231A0020181A002085
:1052C000D01400205B00002026150020580000208C
:1052D00042180020431800202A0000202B00002044
:1052E0000870FE48007820F00400FC490870032094
:1052F000FB490870FB4890F84200FB490870F948E8
:1053000090F84300F9490870F948007820F001004E
:10531000F7490870F748007820F08000F5490870D8
:10532000F548007820F08000F3490870F0480078D4
:1053300020F00200EE4908700020F0490870F049A2
:105340000870F0490870F049087031E0EF480078C3
:1053500020F04000ED490870ED48007820F004008E
:10536000EB4908700846007820F008000870E9480A
:105370000078C0F3001080B1DA4890F84900E6499F
:105380000870D84890F84C00E4490870E04800786C
:1053900020F00200801CDE490870DE48007820F012
:1053A0001000DC4908700020D4490870D449087006
:1053B0000120DB490870DB49087005E00120D8496D
:1053C00008700320D74908700020D749C87082E3CD
:1053D000D648007809287DD1D548007800287AD0B1
:1053E000CC480078C0F38000002874D1C24800780F
:1053F000C0F3401000286ED1CE48007800286AD053
:10540000C348007800F00100002864D1B348007858
:10541000C0F34000F0BBBF480078C0F30010A8B153
:10542000B04890F84900BC490870AE4890F84C006C
:10543000BA490870B648007820F00200801CB449D0
:1054400008700020AD490870AD490870B148007877
:1054500020F01000AF490870AD48007820F004003B
:10546000AB490870AB48007820F00800A9490870E3
:10547000A748007820F00800A5490870AE480078D9
:1054800050BB0846007820F08000803008709F48AC
:10549000007800E091E020F0800080309B490870A7
:1054A0005A20A5490870A548007820F08000A3493B
:1054B00008708C4890F84000A1490870894890F81D
:1054C0004500C0EB001080009E490860854890F8B8
:1054D000440002E09AE2CCE00CE01E309A490870E9
:1054E00003207F4908707D48007820F004007B4944
:1054F000087062E0904800785A2828D184480078E3
:1055000020F080008030824908708048007820F0C8
:10551000800080307D49087047208749087087489F
:10552000007820F00400854908706E4890F8460025
:10553000C0EB0010800085490860032068490870AE
:105540006648007820F004006449087035E00020C7
:105550006A4908706A4908707D4908607D49086099
:105560007D4908605F4890F84B007C4908705D48B1
:1055700090F84E00401D7A4908707048007820F07D
:10558000400040306D4908700846007820F08000E7
:1055900008700846007820F0040008705C48007825
:1055A00020F080005A4908705848007820F08000A8
:1055B0005649087000206049087054480078C009B6
:1055C000F0B34B48007820F0010049490870494881
:1055D000007820F08000474908704748007820F0A4
:1055E0008000454908704248007820F00200404998
:1055F00008700846007820F004000870084600781B
:1056000020F0100008700846007820F04000087074
:105610003F48007820F010003D49087008460078A7
:1056200020F0200008700846007820F04000087044
:1056300000204C4908703548007820F0200000E038
:1056400011E0324908700020474908702F4800785F
:1056500020F040002D4908702D48007820F080008F
:1056600080302B49087001202D4908702D490870A1
:10567000C8E12F48007800282ED126480078C0F3D2
:1056800080000028F8D11C480078C0F340100028A2
:10569000F2D12848007800281ED034480078D0B9CC
:1056A00001203249087000203149087031490870E2
:1056B0003149086001203149C1F8A8011548007836
:1056C00020F0800080301349087001202C490870B8
:1056D0002C48007858E061E08EE100005E00002078
:1056E0003C000020231A00202A0000202B0000206C
:1056F000580000205A0000205B00002042180020C3
:105700004318002016000020170000205900002038
:105710005D000020570000202C0000202D000020FC
:105720004A00002049000020181A0020D014002050
:1057300001000020261500201C0000205C00002035
:105740002E000020300000202F0000203400002018
:1057500004000020080000200C0000203900002078
:105760003B000020250000201B000020000000203E
:10577000190000201A00002084812142008021426B
:105780004C1800202715002040B1F648007820F082
:105790000100F44908700020F3490870F3480078CC
:1057A000F0BBF348007820F080008030F0490870AA
:1057B000F048007820F080008030EE4908705A20D0
:1057C000EA490870EC48007820F08000EA49087047
:1057D000EA4890F84000EA490870E84890F8450027
:1057E000C0EB00108000E7490860E44890F84400EE
:1057F0001E30E54908700320E4490870D948007854
:1058000020F00400D7490870E1480078C0F3001088
:10581000F0B3DA4890F84900DE490870D74800E054
:1058200010E090F84C00DC490870D148007820F076
:105830000200801CCE4908700020D8490870D84961
:10584000087064E0C94800785A282AD1C84800780E
:1058500020F080008030C6490870C648007820F0EB
:1058600080008030C34908704720C0490870C24892
:10587000007820F00400C0490870C04890F8460045
:10588000C0EB00108000C74908600320BF4900E05A
:105890003DE00870B348007820F00400B14908707A
:1058A00035E00020BD490870BD490870BE49086058
:1058B000BE490860BE490860B04890F84B00BD4939
:1058C0000870AE4890F84E00401DBB490870AA48C9
:1058D000007820F040004030A74908700846007862
:1058E00020F0800008700846007820F0040008705E
:1058F0009F48007820F080009D4908709D480078FE
:1059000020F080009B490870002098490870994851
:105910000078C009F0B3A948007820F00100A74939
:105920000870A748007820F08000A5490870A548B5
:10593000007820F08000A3490870A048007820F08B
:1059400002009E4908700846007820F004000870A4
:105950000846007820F0100008700846007820F013
:10596000400008708248007820F0100080490870DC
:105970000846007820F0200008700846007820F0E3
:10598000400008700020904908707A48007820F0A4
:10599000200000E02AE07749087000208B49087059
:1059A0007448007820F04000724908707048007810
:1059B00020F0800080306E49087001208449087012
:1059C0007348007820F00800714908700846007894
:1059D00020F0100008706648007820F00400644948
:1059E00008700846007820F0080008700120794906
:1059F00008707949087005E0012076490870032095
:105A00007549087000207549C87064E074480078D2
:105A10000F2860D173480078F0BB73480078D8BB7A
:105A20005B480078C0F38000B0BB66480078C0F3E4
:105A3000401088BB5148C07A792846D16B4800781D
:105A400050B301206A4908704C4890F85100401C3E
:105A500068490870494890F85200674908704748FB
:105A600090F8530065490870444890F85400644920
:105A700008704748007820F00400001D4449087071
:105A80003E4890F850005F49087001205E49087058
:105A90003A4890F86F0000E017E06421484342491B
:105AA00008604FF4967041490860642040490860DE
:105AB000012048490870484908700020534908608F
:105AC00001205349C1F8A80105E0012041490870AF
:105AD00003204149087010BD10B54E4800780B28CE
